{
  "_format": "hh-sol-artifact-1",
  "contractName": "Raffle",
  "sourceName": "contracts/Raffle.sol",
  "abi": [
    {
      "inputs": [
        {
          "internalType": "address",
          "name": "_vrfCoordinatorV2",
          "type": "address"
        },
        {
          "internalType": "uint256",
          "name": "_entranceFee",
          "type": "uint256"
        },
        {
          "internalType": "bytes32",
          "name": "_gasLane",
          "type": "bytes32"
        },
        {
          "internalType": "uint64",
          "name": "_subscriptionId",
          "type": "uint64"
        },
        {
          "internalType": "uint32",
          "name": "_callbackGasLimit",
          "type": "uint32"
        }
      ],
      "stateMutability": "nonpayable",
      "type": "constructor"
    },
    {
      "inputs": [
        {
          "internalType": "address",
          "name": "have",
          "type": "address"
        },
        {
          "internalType": "address",
          "name": "want",
          "type": "address"
        }
      ],
      "name": "OnlyCoordinatorCanFulfill",
      "type": "error"
    },
    {
      "inputs": [],
      "name": "Raffle_err_NotEnoughETHEntered",
      "type": "error"
    },
    {
      "inputs": [],
      "name": "Raffle_err_TransferFailed",
      "type": "error"
    },
    {
      "anonymous": false,
      "inputs": [
        {
          "indexed": true,
          "internalType": "address",
          "name": "player",
          "type": "address"
        }
      ],
      "name": "RaffleEnter",
      "type": "event"
    },
    {
      "anonymous": false,
      "inputs": [
        {
          "indexed": true,
          "internalType": "uint256",
          "name": "requestId",
          "type": "uint256"
        }
      ],
      "name": "RequestedRaffleWinner",
      "type": "event"
    },
    {
      "anonymous": false,
      "inputs": [
        {
          "indexed": true,
          "internalType": "address",
          "name": "winner",
          "type": "address"
        }
      ],
      "name": "WinnerPicked",
      "type": "event"
    },
    {
      "inputs": [],
      "name": "enterRaffle",
      "outputs": [],
      "stateMutability": "payable",
      "type": "function"
    },
    {
      "inputs": [],
      "name": "getEntranceFee",
      "outputs": [
        {
          "internalType": "uint256",
          "name": "",
          "type": "uint256"
        }
      ],
      "stateMutability": "view",
      "type": "function"
    },
    {
      "inputs": [
        {
          "internalType": "uint256",
          "name": "_index",
          "type": "uint256"
        }
      ],
      "name": "getPlayer",
      "outputs": [
        {
          "internalType": "address",
          "name": "",
          "type": "address"
        }
      ],
      "stateMutability": "view",
      "type": "function"
    },
    {
      "inputs": [],
      "name": "getRecentWinner",
      "outputs": [
        {
          "internalType": "address",
          "name": "",
          "type": "address"
        }
      ],
      "stateMutability": "view",
      "type": "function"
    },
    {
      "inputs": [],
      "name": "getVRFCoordinator",
      "outputs": [
        {
          "internalType": "contract VRFCoordinatorV2Interface",
          "name": "",
          "type": "address"
        }
      ],
      "stateMutability": "view",
      "type": "function"
    },
    {
      "inputs": [
        {
          "internalType": "uint256",
          "name": "requestId",
          "type": "uint256"
        },
        {
          "internalType": "uint256[]",
          "name": "randomWords",
          "type": "uint256[]"
        }
      ],
      "name": "rawFulfillRandomWords",
      "outputs": [],
      "stateMutability": "nonpayable",
      "type": "function"
    },
    {
      "inputs": [],
      "name": "requestRandomWinner",
      "outputs": [],
      "stateMutability": "nonpayable",
      "type": "function"
    }
  ],
  "bytecode": "0x610160604052600163ffffffff166101409063ffffffff168152503480156200002757600080fd5b506040516200100b3803806200100b83398181016040528101906200004d91906200026a565b848073ffffffffffffffffffffffffffffffffffffffff1660808173ffffffffffffffffffffffffffffffffffffffff1681525050508360a081815250508473ffffffffffffffffffffffffffffffffffffffff1660c08173ffffffffffffffffffffffffffffffffffffffff16815250508260e081815250508167ffffffffffffffff166101008167ffffffffffffffff16815250508063ffffffff166101208163ffffffff16815250505050505050620002f2565b600080fd5b600073ffffffffffffffffffffffffffffffffffffffff82169050919050565b6000620001368262000109565b9050919050565b620001488162000129565b81146200015457600080fd5b50565b60008151905062000168816200013d565b92915050565b6000819050919050565b62000183816200016e565b81146200018f57600080fd5b50565b600081519050620001a38162000178565b92915050565b6000819050919050565b620001be81620001a9565b8114620001ca57600080fd5b50565b600081519050620001de81620001b3565b92915050565b600067ffffffffffffffff82169050919050565b6200020381620001e4565b81146200020f57600080fd5b50565b6000815190506200022381620001f8565b92915050565b600063ffffffff82169050919050565b620002448162000229565b81146200025057600080fd5b50565b600081519050620002648162000239565b92915050565b600080600080600060a0868803121562000289576200028862000104565b5b6000620002998882890162000157565b9550506020620002ac8882890162000192565b9450506040620002bf88828901620001cd565b9350506060620002d28882890162000212565b9250506080620002e58882890162000253565b9150509295509295909350565b60805160a05160c05160e051610100516101205161014051610ca962000362600039600061043601526000610415015260006103f2015260006103d101526000818161039501526104ee01526000818161018101526102670152600081816101a701526101fb0152610ca96000f3fe6080604052600436106100705760003560e01c8063473f1ddc1161004e578063473f1ddc146100d3578063522a1f0b146100fe578063a378f37114610115578063e55ae4e81461014057610070565b806309bc33a7146100755780631fe543e3146100a05780632cfcc539146100c9575b600080fd5b34801561008157600080fd5b5061008a61017d565b6040516100979190610755565b60405180910390f35b3480156100ac57600080fd5b506100c760048036038101906100c29190610909565b6101a5565b005b6100d1610265565b005b3480156100df57600080fd5b506100e8610367565b6040516100f591906109a6565b60405180910390f35b34801561010a57600080fd5b50610113610391565b005b34801561012157600080fd5b5061012a6104ea565b6040516101379190610a20565b60405180910390f35b34801561014c57600080fd5b5061016760048036038101906101629190610a3b565b610512565b60405161017491906109a6565b60405180910390f35b60007f0000000000000000000000000000000000000000000000000000000000000000905090565b7f000000000000000000000000000000000000000000000000000000000000000073ffffffffffffffffffffffffffffffffffffffff163373ffffffffffffffffffffffffffffffffffffffff161461025757337f00000000000000000000000000000000000000000000000000000000000000006040517f1cf993f400000000000000000000000000000000000000000000000000000000815260040161024e929190610a68565b60405180910390fd5b6102618282610559565b5050565b7f00000000000000000000000000000000000000000000000000000000000000003410156102bf576040517f0891f2b600000000000000000000000000000000000000000000000000000000815260040160405180910390fd5b6000339080600181540180825580915050600190039060005260206000200160009091909190916101000a81548173ffffffffffffffffffffffffffffffffffffffff021916908373ffffffffffffffffffffffffffffffffffffffff1602179055503373ffffffffffffffffffffffffffffffffffffffff167f0805e1d667bddb8a95f0f09880cf94f403fb596ce79928d9f29b74203ba284d460405160405180910390a2565b6000600160009054906101000a900473ffffffffffffffffffffffffffffffffffffffff16905090565b60007f000000000000000000000000000000000000000000000000000000000000000073ffffffffffffffffffffffffffffffffffffffff16635d3b1d307f00000000000000000000000000000000000000000000000000000000000000007f000000000000000000000000000000000000000000000000000000000000000060037f00000000000000000000000000000000000000000000000000000000000000007f00000000000000000000000000000000000000000000000000000000000000006040518663ffffffff1660e01b8152600401610475959493929190610b09565b6020604051808303816000875af1158015610494573d6000803e3d6000fd5b505050506040513d601f19601f820116820180604052508101906104b89190610b71565b9050807fcd6e45c8998311cab7e9d4385596cac867e20a0587194b954fa3a731c93ce78b60405160405180910390a250565b60007f0000000000000000000000000000000000000000000000000000000000000000905090565b600080828154811061052757610526610b9e565b5b9060005260206000200160009054906101000a900473ffffffffffffffffffffffffffffffffffffffff169050919050565b600080805490508260008151811061057457610573610b9e565b5b60200260200101516105869190610bfc565b9050600080828154811061059d5761059c610b9e565b5b9060005260206000200160009054906101000a900473ffffffffffffffffffffffffffffffffffffffff16905080600160006101000a81548173ffffffffffffffffffffffffffffffffffffffff021916908373ffffffffffffffffffffffffffffffffffffffff1602179055506000600160009054906101000a900473ffffffffffffffffffffffffffffffffffffffff1673ffffffffffffffffffffffffffffffffffffffff164760405161065390610c5e565b60006040518083038185875af1925050503d8060008114610690576040519150601f19603f3d011682016040523d82523d6000602084013e610695565b606091505b50509050806106d0576040517fdc19a09900000000000000000000000000000000000000000000000000000000815260040160405180910390fd5b600160009054906101000a900473ffffffffffffffffffffffffffffffffffffffff1673ffffffffffffffffffffffffffffffffffffffff167f5b690ec4a06fe979403046eaeea5b3ce38524683c3001f662c8b5a829632f7df60405160405180910390a25050505050565b6000819050919050565b61074f8161073c565b82525050565b600060208201905061076a6000830184610746565b92915050565b6000604051905090565b600080fd5b600080fd5b61078d8161073c565b811461079857600080fd5b50565b6000813590506107aa81610784565b92915050565b600080fd5b6000601f19601f8301169050919050565b7f4e487b7100000000000000000000000000000000000000000000000000000000600052604160045260246000fd5b6107fe826107b5565b810181811067ffffffffffffffff8211171561081d5761081c6107c6565b5b80604052505050565b6000610830610770565b905061083c82826107f5565b919050565b600067ffffffffffffffff82111561085c5761085b6107c6565b5b602082029050602081019050919050565b600080fd5b600061088561088084610841565b610826565b905080838252602082019050602084028301858111156108a8576108a761086d565b5b835b818110156108d157806108bd888261079b565b8452602084019350506020810190506108aa565b5050509392505050565b600082601f8301126108f0576108ef6107b0565b5b8135610900848260208601610872565b91505092915050565b600080604083850312156109205761091f61077a565b5b600061092e8582860161079b565b925050602083013567ffffffffffffffff81111561094f5761094e61077f565b5b61095b858286016108db565b9150509250929050565b600073ffffffffffffffffffffffffffffffffffffffff82169050919050565b600061099082610965565b9050919050565b6109a081610985565b82525050565b60006020820190506109bb6000830184610997565b92915050565b6000819050919050565b60006109e66109e16109dc84610965565b6109c1565b610965565b9050919050565b60006109f8826109cb565b9050919050565b6000610a0a826109ed565b9050919050565b610a1a816109ff565b82525050565b6000602082019050610a356000830184610a11565b92915050565b600060208284031215610a5157610a5061077a565b5b6000610a5f8482850161079b565b91505092915050565b6000604082019050610a7d6000830185610997565b610a8a6020830184610997565b9392505050565b6000819050919050565b610aa481610a91565b82525050565b600067ffffffffffffffff82169050919050565b610ac781610aaa565b82525050565b600061ffff82169050919050565b610ae481610acd565b82525050565b600063ffffffff82169050919050565b610b0381610aea565b82525050565b600060a082019050610b1e6000830188610a9b565b610b2b6020830187610abe565b610b386040830186610adb565b610b456060830185610afa565b610b526080830184610afa565b9695505050505050565b600081519050610b6b81610784565b92915050565b600060208284031215610b8757610b8661077a565b5b6000610b9584828501610b5c565b91505092915050565b7f4e487b7100000000000000000000000000000000000000000000000000000000600052603260045260246000fd5b7f4e487b7100000000000000000000000000000000000000000000000000000000600052601260045260246000fd5b6000610c078261073c565b9150610c128361073c565b925082610c2257610c21610bcd565b5b828206905092915050565b600081905092915050565b50565b6000610c48600083610c2d565b9150610c5382610c38565b600082019050919050565b6000610c6982610c3b565b915081905091905056fea264697066735822122033abe47bb5a414d11f3621e1ff97bf2da95d0847370c69c8f45ebd1f7e70656d64736f6c63430008130033",
  "linkReferences": {},
  "deployedLinkReferences": {}
}